:100000000C9462000C948A000C948A000C948A0070
:100010000C948A000C948A000C948A000C948A0038
:100020000C948A000C948A000C948A000C948A0028
:100030000C948A000C948A000C948A000C948A0018
:100040000C94D4020C948A000C9444030C941E0368
:100050000C948A000C948A000C948A000C948A00F8
:100060000C948A000C948A000000000023002600F3
:10007000290000000000240027002A0000000000E2
:10008000250028002B0004040404040404040202D4
:100090000202020203030303030301020408102007
:1000A0004080010204081020010204081020000012
:1000B0000008000201000003040700000000000027
:1000C0000000650511241FBECFEFD8E0DEBFCDBF15
:1000D00011E0A0E0B1E0E8E7FBE002C005900D927E
:1000E000AA31B107D9F721E0AAE1B1E001C01D9220
:1000F000A43CB207E1F710E0C2E6D0E004C02197CB
:10010000FE010E94B405C136D107C9F70E947603EB
:100110000C94BA050C940000833081F028F48130EF
:1001200099F08230A9F008958730A9F08830C9F09D
:100130008430B1F4809180008F7D03C08091800075
:100140008F7780938000089584B58F7784BD08955C
:1001500084B58F7DFBCF8091B0008F778093B00006
:1001600008958091B0008F7DF9CF1F93CF93DF93D7
:10017000282F30E0F901E255FF4F8491F901E6564E
:10018000FF4FD491F901EA57FF4FC491CC23A9F056
:10019000162F81110E948C00EC2FF0E0EE0FFF1F54
:1001A000E458FF4FA591B4918FB7F894EC911111D9
:1001B00008C0D095DE23DC938FBFDF91CF911F91D4
:1001C0000895DE2BF8CFCF93DF9390E0FC01E65645
:1001D000FF4F24918A579F4FFC0184918823D1F0CF
:1001E00090E0880F991FFC01EE58FF4FA591B49144
:1001F000FC01E458FF4FC591D49161110EC09FB727
:10020000F8948C91E22FE0958E238C932881E22341
:10021000E8839FBFDF91CF9108958FB7F894EC9159
:10022000E22BEC938FBFF6CF8E50806480937C00DE
:1002300080917A00806480937A0080917A0086FDB4
:10024000FCCF809178009091790008953FB7F894A1
:100250008091230190912401A0912501B091260164
:1002600026B5A89B05C02F3F19F00196A11DB11D11
:100270003FBFBA2FA92F982F8827BC01CD01620F4D
:10028000711D811D911D42E0660F771F881F991F08
:100290004A95D1F70895AF92BF92CF92DF92EF9235
:1002A000FF920F931F93CF93DF936C017B018B0120
:1002B000040F151FEB015E01AE18BF08C017D10770
:1002C00059F06991D601ED91FC910190F081E02DFA
:1002D000C6010995892B79F7C501DF91CF911F914F
:1002E0000F91FF90EF90DF90CF90BF90AF90089567
:1002F000FC01538D448D252F30E0842F90E0821B2C
:10030000930B541710F0CF96089501970895FC01B0
:10031000918D828D981761F0A28DAE0FBF2FB11D08
:100320005D968C91928D9F5F9F73928F90E0089560
:100330008FEF9FEF0895FC01918D828D981731F01A
:10034000828DE80FF11D858D90E008958FEF9FEF6E
:100350000895FC01918D228D892F90E0805C9F4F44
:10036000821B91098F739927089587E291E00E947B
:10037000A90121E0892B09F420E0822F089580E073
:1003800090E0892B29F00E94B50181110C940000A6
:100390000895FC01A48DA80FB92FB11DA35ABF4F1A
:1003A0002C91848D90E001968F739927848FA68974
:1003B000B7892C93A089B1898C91837080648C93C8
:1003C000938D848D981306C00288F389E02D808177
:1003D0008F7D80830895EF92FF920F931F93CF93A9
:1003E000DF93EC0181E0888F9B8D8C8D98131AC070
:1003F000E889F989808185FF15C09FB7F894EE8957
:10040000FF896083E889F9898081837080648083B3
:100410009FBF81E090E0DF91CF911F910F91FF90FE
:10042000EF900895F62E0B8D10E00F5F1F4F0F73A6
:100430001127E02E8C8D8E110CC00FB607FCFACF61
:10044000E889F989808185FFF5CFCE010E94C90135
:10045000F1CFEB8DEC0FFD2FF11DE35AFF4FF08232
:100460009FB7F8940B8FEA89FB8980818062CFCF98
:10047000CF93DF93EC01888D8823B9F0AA89BB89DB
:10048000E889F9898C9185FD03C0808186FD0DC0C6
:100490000FB607FCF7CF8C9185FFF2CF808185FFE7
:1004A000EDCFCE010E94C901E9CFDF91CF91089530
:1004B000FC0101900020E9F73197AF01481B590B6F
:1004C000BC0187E291E00C944B018F929F92AF9216
:1004D000BF920F931F93CF93DF93CDB7DEB7A19752
:1004E0000FB6F894DEBF0FBECDBF19A2423008F49C
:1004F0004AE08E010F5D1F4F842E912CB12CA12C50
:10050000A50194010E949205E62FB901CA01EA30C3
:10051000F4F4E05DD801EE938D01232B242B252BE1
:1005200079F790E080E0109719F0CD010E94580211
:10053000A1960FB6F894DEBF0FBECDBFDF91CF916D
:100540001F910F91BF90AF909F908F900895E95C9D
:10055000E1CFCF92DF92EF92FF92CF93DF936B01C7
:100560007C016DE287E291E00E94EB01EC016627DD
:100570007727CB016C197D098E099F094AE00E94FB
:1005800065028C0F9D1FDF91CF91FF90EF90DF9060
:10059000CF900895BC01990F880B990B97FD0C948F
:1005A000A9024AE00C9465021F920F920FB60F92B7
:1005B00011242F933F938F939F93AF93BF93809179
:1005C0001F0190912001A0912101B0912201309151
:1005D0001E0123E0230F2D3758F50196A11DB11DF3
:1005E00020931E0180931F0190932001A09321016D
:1005F000B09322018091230190912401A0912501C3
:10060000B09126010196A11DB11D80932301909305
:100610002401A0932501B0932601BF91AF919F9132
:100620008F913F912F910F900FBE0F901F901895B3
:1006300026E8230F0296A11DB11DD2CF1F920F9263
:100640000FB60F9211242F933F934F935F936F93A5
:100650007F938F939F93AF93BF93EF93FF9387E223
:1006600091E00E94C901FF91EF91BF91AF919F91DD
:100670008F917F916F915F914F913F912F910F904B
:100680000FBE0F901F9018951F920F920FB60F92EA
:1006900011242F938F939F93EF93FF93E091370152
:1006A000F09138018081E0913D01F0913E0182FDA1
:1006B0001BC09081809140018F5F8F732091410119
:1006C000821741F0E0914001F0E0E95DFE4F958F27
:1006D00080934001FF91EF919F918F912F910F9007
:1006E0000FBE0F901F9018958081F4CF789484B539
:1006F000826084BD84B5816084BD85B5826085BD1E
:1007000085B5816085BD80916E00816080936E00AB
:10071000109281008091810082608093810080919D
:10072000810081608093810080918000816080934E
:1007300080008091B10084608093B1008091B0000E
:1007400081608093B00080917A00846080937A0009
:1007500080917A00826080937A0080917A00816033
:1007600080937A0080917A00806880937A0010925A
:10077000C10060E088E00E94E30060E080E10E9448
:10078000E30061E084E00E94E30061E083E00E9416
:10079000E30061E085E00E94E30061E086E00E9402
:1007A000E300E0913701F091380182E08083E0912D
:1007B0003301F09134011082E0913501F09136015E
:1007C00080E1808310923F01E0913B01F0913C0178
:1007D00086E08083E0913901F0913A018081806167
:1007E0008083E0913901F0913A01808188608083B3
:1007F000E0913901F0913A01808180688083E09135
:100800003901F0913A0180818F7D808326EB222E81
:1008100020E0322EEE24E394F12C42E0C42ED12CC1
:100820008FE00E941401885092403C018EE00E94AB
:1008300014018C0180E10E941401EC0126EF621684
:100840002FEF72060CF0D2C010921D0110921C0105
:1008500060E083E00E94B50061E085E00E94B500A1
:1008600061E086E00E94B50080911C0190911D011D
:100870008D7F892B09F0D6C0F0921B01E0921A01FE
:10088000F1018491E2EAF0E01491EEE8F0E00491E5
:10089000002309F4F9C081110E948C00E02FF0E0E0
:1008A000EE0FFF1FE859FF4FA591B4918C911823CB
:1008B00001E080E009F000E0182FCE0101978436B6
:1008C000910508F4E4C0845691098436910508F432
:1008D000E1C0845691098436910508F4DEC084563F
:1008E00091098436910508F4DBC084569109843659
:1008F000910508F4D8C0845691098436910508F40E
:10090000D5C0845691098436910508F4D2C0845626
:1009100091098436910508F4CFC084569109843634
:10092000910508F4CCC0C558D340C436D10508F4AD
:10093000C9C0CAE0D0E082E191E00E9458028091F3
:100940001C0190911D010E94CA0284E191E00E9465
:10095000580280911A0190911B010E94CA0284E101
:1009600091E00E945802C8010E94CA0284E191E00D
:100970000E945802BE01DD0F880B990B4AE00E94CD
:10098000650286E191E00E9458020E9426014B0117
:100990005C0188E2482E512C612C712C0E942601AA
:1009A000681979098A099B09683E73408105910598
:1009B000A8F3F1E04F1A51086108710828EE820E81
:1009C00023E0921EA11CB11C411451046104710466
:1009D00029F780E090E0892B09F422CF0E94B5012D
:1009E000882309F41DCF0E9400001ACF8BE06816FF
:1009F000710454F0D0921D01C0921C0161E083E0AB
:100A00000E94B50060E029CFF0921D01E0921C0128
:100A100061E083E00E94B50061E085E00E94B500DE
:100A200060E01FCF0D501240063FEFEF1E078CF421
:100A3000D0921B01C0921A0160E083E00E94B500D1
:100A400060E085E00E94B50061E086E00E94B500AC
:100A500017CF0B30110574F010921B0110921A0180
:100A600060E083E00E94B50061E085E00E94B5008F
:100A700060E0EBCFF0921B01E0921A0161E083E0AD
:100A80000E94B50060E0F1CF01E010E016CFD0E0A9
:100A9000C0E051CFC1E0D0E04ECFC2E0D0E04BCFBC
:100AA000C3E0D0E048CFC4E0D0E045CFC5E0D0E01F
:100AB00042CFC6E0D0E03FCFC7E0D0E03CCFC8E0B7
:100AC000D0E039CFC9E0D0E036CFE7E2F1E01382E1
:100AD000128288EE93E0A0E0B0E084839583A68341
:100AE000B78384E091E09183808385EC90E09587E3
:100AF000848784EC90E09787868780EC90E0918BE8
:100B0000808B81EC90E0938B828B82EC90E0958BD4
:100B1000848B86EC90E0978B868B118E128E138ED1
:100B2000148E0895A1E21A2EAA1BBB1BFD010DC055
:100B3000AA1FBB1FEE1FFF1FA217B307E407F5078D
:100B400020F0A21BB30BE40BF50B661F771F881F69
:100B5000991F1A9469F760957095809590959B01FF
:100B6000AC01BD01CF010895EE0FFF1F0590F49178
:080B7000E02D0994F894FFCF79
:100B780000000000EB014B0178013802A901870150
:0A0B88009B0153002C000D0A000031
:00000001FF
